:020000040800F2
:1000000000000A20B9650008095900080B590008CA
:100010000D5900080F590008115900080000000090
:10002000000000000000000000000000135900085C
:100030001559000800000000175900081959000858
:1000400009660008096600080966000809660008D4
:1000500009660008096600080966000809660008C4
:1000600009660008096600080966000809660008B4
:1000700009660008096600080966000809660008A4
:100080000966000809660008096600080966000894
:100090000966000809660008096600080966000884
:1000A0000966000809660008096600080966000874
:1000B0000966000809660008096600080966000864
:1000C0000966000809660008096600080966000854
:1000D0000966000821590008096600080966000839
:1000E0000966000809660008096600080966000834
:1000F000096600080966000809660008000000009B
:100100000966000809660008096600080966000813
:100110000966000809660008096600080966000803
:1001200009660008096600080966000809660008F3
:1001300009660008096600080966000809660008E3
:1001400009660008096600080966000831590008B8
:1001500009660008096600080966000809660008C3
:1001600009660008096600080966000809660008B3
:100170000966000809660008000000000000000091
:100180000966000809660008096600080966000893
:100190000966000809660008000000000000000071
:1001A0000000000000000000096600080966000861
:1001B00009660008096600080966000800000000DA
:1001C00010B5054C237833B9044B13B10448AFF391
:1001D00000800123237010BD90010020000000006A
:1001E0007C66000808B5034B1BB103490348AFF315
:1001F000008008BD00000000940100207C6600081B
:1002000053B94AB9002908BF00281CBF4FF0FF317D
:100210004FF0FF3000F072B9ADF1080C6DE904CE7B
:1002200000F006F8DDF804E0DDE9022304B07047D1
:100230002DE9F047089E04468846002B4BD18A42A0
:10024000154667D9B2FA82F24AB1C2F1200701FA23
:1002500002F320FA07F7954047EA030894404FEA73
:10026000154E230CB8FBFEF71FFA85FC0EFB178812
:1002700043EA084307FB0CF1994209D9EB1807F14F
:10028000FF3080F01B81994240F21881023F2B44DD
:100290005B1AA4B2B3FBFEF00EFB103344EA034436
:1002A00000FB0CFCA44509D92C1900F1FF3380F0A8
:1002B0000781A44540F2048102382C4440EA0740FB
:1002C000A4EB0C0400271EB1D4400023C6E9004370
:1002D0003946BDE8F0878B4209D9002E00F0EB804B
:1002E0000027C6E9000138463946BDE8F087B3FA71
:1002F00083F7002F47D18B4202D3824200F2FA806B
:10030000841A61EB030301209846002EE0D0C6E971
:100310000048DDE702B9FFDEB2FA82F2002A40F0BF
:100320008F80491B4FEA154E1FFA85F80127B1FB54
:10033000FEFC230C0EFB1C1143EA014308FB0CF1ED
:10034000994207D9EB180CF1FF3002D2994200F222
:10035000CD808446591AA3B2B1FBFEF00EFB1014F7
:1003600043EA044408FB00F8A04507D92C1900F122
:10037000FF3302D2A04500F2B6801846A4EB080471
:1003800040EA0C409FE7C7F1200CBB4022FA0CFE6C
:100390004EEA030E01FA07F420FA0CF521FA0CF3E9
:1003A0004FEA1E482543B3FBF8F92C0C08FB193320
:1003B0001FFA8EFA44EA034309FB0AF49C4202FA4C
:1003C00007F200FA07F10BD91EEB030309F1FF3026
:1003D00080F087809C4240F28480A9F10209734436
:1003E0001B1BADB2B3FBF8F008FB103345EA034426
:1003F00000FB0AFAA24508D91EEB040400F1FF3302
:100400006BD2A24569D90238744440EA0940A0FB86
:100410000289A4EB0A044C45C2464B4654D351D042
:10042000002E69D0B1EB0A0564EB030404FA0CFC5E
:10043000FD40FC404CEA0505C6E90054002747E7AB
:10044000C2F1200320FA03F7954001FA02F021FAE5
:1004500003F34FEA154E3843010CB3FBFEF71FFAC6
:1004600085F80EFB173341EA034107FB08F38B4283
:1004700004FA02F407D9691807F1FF3C2FD28B4226
:100480002DD9023F2944CB1A81B2B3FBFEF00EFBFB
:10049000103341EA034100FB08F38B4207D9691886
:1004A00000F1FF3C17D28B4215D902382944C91AF2
:1004B00040EA07473BE73746304609E70746E7E6A5
:1004C0001846FBE64145ABD2B8EB020A69EB0E02D7
:1004D00001381346A4E76046E9E7184695E7674602
:1004E000D1E781467CE702382C4447E7ACF1020CA7
:1004F0002B442FE7384608E73746E9E6704700BF48
:10050000034613F8012B002AFBD1181A0138704753
:10051000104B1B680BB90120704710B504464FF40F
:100520007A70B0FBF3F30C4A1068B0FBF3F000F004
:100530009FF868B90F2C01D901200AE0002221465A
:100540004FF0FF3000F052F8024B5C60002000E0FA
:10055000012010BD000000201C01002010B5032068
:1005600000F032F80020FFF7D3FF10B1012420463D
:1005700010BD044605F0B0F9F9E70000034A13681E
:10058000034909680B441360704700BF140400203E
:1005900000000020014B1868704700BF14040020C1
:1005A00038B50446FFF7F6FF0546B4F1FF3F02D029
:1005B000044B1B681C44FFF7EDFF401BA042FAD31D
:1005C00038BD00BF00000020074AD36823F4E06371
:1005D0001B041B0C000200F4E060184340F0BF60F5
:1005E00040F40030D060704700ED00E030B4174BAD
:1005F000DB68C3F30223C3F10704042C28BF0424DF
:100600001D1D062D18D9033B4FF0FF3505FA04F4E4
:1006100021EA0401994005FA03F322EA030319438E
:1006200000280BDB0901C9B200F1604000F5614010
:1006300080F8001330BC70470023E5E700F00F009E
:100640000901C9B2024B1954F4E700BF00ED00E004
:1006500014ED00E0002807DB00F01F024009012331
:100660009340024A42F82030704700BF00E100E0AA
:100670000138B0F1807F0AD2064B5860064AF0215B
:1006800082F823100020986007221A60704701202A
:10069000704700BF10E000E000ED00E008B590F802
:1006A0002530DBB2022B03D00423C363012008BD35
:1006B0000268136823F00E0313600268136823F0C6
:1006C00001031360826C136823F480731360436C1E
:1006D00003F01C02016C012393404B60C36C026D5C
:1006E0005A60436D33B11A6822F480721A60836DC8
:1006F000C26D5A60012380F82530002380F8243031
:10070000836B13B198470020D1E70020CFE70000AA
:10071000F0B482B0002336E0072400E00024B440A7
:100720003C430235644E46F82540644C2568D4436A
:1007300004EA05064F6817F4803F01D042EA050637
:100740005E4D2E606D6804EA05064F6817F4003FA1
:1007500001D042EA0506594D6E60AD6804EA05060F
:100760004F6817F4801F01D042EA0506534DAE6072
:10077000ED682C404E6816F4001F01D042EA0504D3
:100780004E4AD46001330A6832FA03F400F09180D3
:1007900001249C402240F5D04D68022D01D0122D3D
:1007A00010D1DE08083650F826C003F00705AF0068
:1007B0000F25BD402CEA050C0D69BD4045EA0C052E
:1007C00040F8265006685F000325BD40ED4305EA6A
:1007D000060C4E6806F00306BE4046EA0C060660AC
:1007E0004E6806F1FF3CBCF1010F03D9112E01D078
:1007F000122E10D1866805EA060CCE68BE4046EA85
:100800000C068660466826EA04044E68C6F30016A5
:100810009E4026434660C46825408C68BC402C43FB
:10082000C4604C6814F0805FACD0254C256E45F058
:1008300001052566246E04F001040194019C9D08C5
:10084000AE1C1D4C54F8267003F00304A6000F24C0
:10085000B44027EA0407B0F1904F3FF45FAF194C62
:10086000A0421AD004F58064A04218D004F5806438
:10087000A04216D004F58064A04214D004F5806430
:10088000A04212D004F58064A04210D004F5806428
:10089000A0423FF441AF082441E701243FE702248E
:1008A0003DE703243BE7042439E7052437E7062422
:1008B00035E702B0F0BC7047000001400004014081
:1008C00000100240000400480AB98162704781614B
:1008D00070472DE9F0470768CA00521A9300034495
:1008E0005A6D1B6D9A4255D8B8469B1AC1EBC1048C
:1008F000A2000244526C9A4200D31A460C460646A5
:1009000002F1030A4FEA9A0A14E009F1030A4FEAD6
:100910009A0AE3001B1B9D0035441FFA89F3E2B2DB
:10092000A96C384603F09AFEAB6C4B44AB646B6D1C
:100930004B446B6508EB441303F510639B699BB252
:10094000534513D3E3001B1B9A003244516D136DC2
:1009500099420BD253B15B1AC4EBC4018A003244F2
:10096000D2F844909945D0D39946CEE7E3001B1BBB
:1009700098000644326D736D9A420ED804F00F044D
:100980000121A140D7F8344824EA0104C7F83448CB
:10099000002000E00120BDE8F0870020FBE7F0B573
:1009A0008BB0002800F091800446056890F8BD33B4
:1009B00023B3032384F8BD33EB6B13F4807F01D1A1
:1009C00000232361206803F039FC254655F8107B8D
:1009D0006E460FCD0FC60FCD0FC695E8030086E813
:1009E0000300231D0ECB384603F072FB58B10223DF
:1009F00084F8BD33012528460BB0F0BD80F8BC3328
:100A000005F078FBD5E70021206803F01DFC0023EA
:100A100015E0D900C81A82002244012082F83D0066
:100A200082F83C30A2F84230002082F83F00506447
:100A30009064CA1A9100214408650133DBB26568ED
:100A4000AB42E6D3002315E0D800C11A8A00224445
:100A5000002182F8FD1182F8FC3182F8FF11C2F802
:100A60000412C2F80812C21A90002044C0F81012F2
:100A70000133DBB29D42E7D8254655F8107B6E4620
:100A80000FCD0FC60FCD0FC695E8030086E8030013
:100A9000231D0ECB384603F01DFC054660B900232C
:100AA00084F83830012384F8BD33636A012B08D001
:100AB000206803F044FF9EE7022384F8BD3301253C
:100AC00099E7204600F01AFCF2E7012593E7026857
:100AD00090F8BC33012B16D010B5012380F8BC333D
:100AE000836A012B0AD00446006803F01CFF2068CB
:100AF00003F09EFB002084F8BC0310BD936B43F40D
:100B000080339363EFE702207047000038B5036835
:100B10001C6C03EB411303F530639D680B4A944250
:100B20000FD115F4004F08D115F0200F01D020226D
:100B30009A60C9B205F036FB06E04FF400429A60B5
:100B400002E0C9B205F02EFB002038BD0A31544F37
:100B500010B503681A6C03EB4111D1F8084B084B30
:100B60009A4203D005F016FB002010BD01F530615C
:100B700014F4004FF6D04FF400438B60F2E700BF4F
:100B80000A31544F2DE9F84F04460568284603F012
:100B900013FF08B1BDE8F88FA8460646206803F0A9
:100BA000DAFE0028F6D0206803F0D5FE10F0020F20
:100BB00004D02268536903F002035361206803F0F4
:100BC000CAFE10F4002F40F092803746206803F0F0
:100BD000C2FE10F4802F40F0D380206803F0BBFEEB
:100BE0000028C0F22481206803F0B5FE10F4006FE5
:100BF0000AD0D5F8083813F0010F40F0328122688E
:100C0000536903F400635361206803F0A4FE10F0FD
:100C1000006F15D02268536903F00063536194F8A4
:100C2000F433002B40F02181012184F8F413236870
:100C30005B6DC3F38303C4F8F833204605F0ECFB87
:100C4000206803F088FE10F4805F40F01281206875
:100C500003F081FE10F4005F40F06481206803F02F
:100C60007AFE10F0100F14D02268936923F010035D
:100C700093612E6A06F00F08C6F34343022B00F07F
:100C80006981062B00F087812268936943F0100385
:100C90009361206803F05FFE10F0080F40F08F8131
:100CA000206803F058FE10F4801F40F09181206806
:100CB00003F051FE10F4001F40F09481206803F00F
:100CC0004AFE10F0804F40F09781206803F043FE09
:100CD00010F0040F3FF45EAF23685D6815F0040F59
:100CE00040F09381226853682B43536052E7206899
:100CF00003F035FE8146374616E008EB4713012224
:100D0000C3F8082B39462046FFF700FF1BE03946A1
:100D10002046FFF71DFF08EB47130822C3F8082BF6
:100D200014E001374FEA5909B9F1000F3FF44EAF13
:100D300019F0010FF5D0F9B2206803F020FE8246C9
:100D400010F0010FD9D11AF0080FE0D11AF0100FEE
:100D500004D008EB47131022C3F8082B1AF0200F19
:100D600004D008EB47132022C3F8082B1AF4005FC5
:100D7000D7D008EB47134FF40052C3F8082BD0E745
:100D8000206803F0F4FD8146374619E007F00F03B1
:100D9000012101FA03F2D8F8343823EA0203C8F833
:100DA000343808EB4713C3F808195946204605F0B4
:100DB00005FA16E01AF0800F34D101374FEA5909CD
:100DC000B9F1000F3FF409AF19F0010FF5D05FFA48
:100DD00087FB5946206803F0DBFD824610F0010FC7
:100DE000D4D11AF0080F04D008EB47130822C3F837
:100DF00008291AF0100F04D008EB47131022C3F88B
:100E000008291AF0400F04D008EB47134022C3F81A
:100E100008291AF0020FCDD008EB47130222C3F8BD
:100E20000829C7E739462046FFF753FDC5E7D5F83F
:100E3000043823F00103C5F8043894F8F433012B87
:100E400008D0204605F0F4F92268536903F0004306
:100E50005361C8E6002184F8F413204605F0DCFA5B
:100E6000F2E7204605F0CCF9C9E6204605F0C8F9BE
:100E7000E6E605F50069D9F8043023F00103C9F866
:100E800004301021206803F0F7F914E008EB461352
:100E90004FF67F31C3F80819D3F8002922F4001265
:100EA000C3F80029C3F8081BD3F8002B22F4001262
:100EB000C3F8002B01366368B342E7D8D9F81C3079
:100EC00043F00113C9F81C30236BE3B1D9F8843027
:100ED00043F00B03C9F88430D9F8443043F00B03D6
:100EE000C9F84430D5F8003823F4FE63C5F800385B
:100EF00004F57171206803F07FFD2268536903F4E3
:100F000080535361A3E6D9F8143043F4005343F0FF
:100F10002B03C9F81430D9F8103043F00B03C9F88B
:100F20001030DFE7206803F04BFD206803F080FA03
:100F3000E060266800F08EFF227B0146304603F019
:100F400001F9204605F04BF92268536903F4005378
:100F5000536183E647F6F0731E423FF495AE4FEAC5
:100F6000C80AAAEB08034FEA8309A1443609C6F36D
:100F70000A02D9F80812284603F056FCC6F30A06FE
:100F8000D9F808323344C9F80832D9F814321E446B
:100F9000C9F8146278E6082204F57171284603F056
:100FA00043FCC6F30A164FEAC803A3EB08018A0004
:100FB0002244D2F814321E44C2F8146264E6204679
:100FC00005F007F92268536903F00803536167E6E7
:100FD000F9B2204605F04CF92268536903F48013F6
:100FE000536164E6F9B2204605F03CF92268536982
:100FF00003F40013536161E6204605F03FF92268CF
:10100000536903F0804353615FE6204605F03CF9E5
:1010100068E690F8BC33012B0DD010B504460123CF
:1010200080F8BC3380F83810006803F06CFC0020B6
:1010300084F8BC0310BD02207047F8B511F0800F92
:1010400028D101F00F06F500AF1BBC00274604F5C0
:10105000FC74044404343E460644002586F8FD51E1
:1010600001F00F012170A260E370627802B1E180AB
:10107000022B1ED090F8BC33012B1DD00546012356
:1010800080F8BC332146006803F0E0F9002085F8C1
:10109000BC03F8BD01F00F06F500AF1BBC002746EE
:1010A0003834044404343E460644012586F83D5055
:1010B000D6E700232371DDE70220EAE738B511F017
:1010C000800F21D101F00F05EA00541BA3001C463C
:1010D00003F5FC730344043325460544002285F8D8
:1010E000FD2101F00F01197090F8BC23012A1AD0DC
:1010F0000446012280F8BC231946006803F0F0F989
:10110000002084F8BC0338BD01F00F04E200151B79
:10111000AB001D463833034404332C4604440122FB
:1011200084F83D20DDE70220EDE7F8B501F00F057A
:10113000EE00711B8C0004F5FC740444211D771B28
:10114000BC000444C4F80822C4F810320023C4F8D8
:10115000143284F8FD3184F8FC5125B1006803F0A5
:101160008FFA0020F8BD006803F002FAF9E701F0F9
:101170000F01C1EBC1018B001844D0F81402704775
:10118000F8B501F00F05EE00711B8C0038340444F3
:10119000211D771BBC000444A26423650023636502
:1011A000012384F83D3084F83C5025B1006803F0F9
:1011B00067FA0020F8BD006803F0DAF9F9E738B5FE
:1011C00001F00F0543689D4235D811F0800F20D102
:1011D000CA00541AA3001C4603F5FC7303440433ED
:1011E00022460244002182F8FD1101229A701D70EE
:1011F00090F8BC23012A20D00446012280F8BC23A9
:101200001946006803F024FB7DB1002084F8BC037C
:1012100012E0EA00511B8B001946383303440433B3
:101220000144012281F83D20DFE704F57171206857
:1012300003F0E2FBE9E7012038BD0220FCE710B52E
:1012400001F00F0443689C422CD811F0800F1DD18F
:10125000E3001A1B91000A4601F5FC7101440431B8
:101260000244002382F8FD3100238B700C7090F84B
:10127000BC33012B18D00446012380F8BC3300682E
:1012800003F013FB002084F8BC030CE0E3001A1BFE
:1012900091000A463831014404310244012382F8A6
:1012A0003D30E1E7012010BD0220FCE730B40468C6
:1012B000606A29B10D46A36A00EB134000230CE0DD
:1012C00040EA0240A06212E003F1400104EB810118
:1012D000496800EB11400133DBB2691E8B42F3D346
:1012E00040EA024005F13F0104EB81014860002023
:1012F00030BC70470368596200207047034602689B
:101300000121C0F8FC13002083F8F403936943F033
:1013100000639361536D43F0805343F003035365BF
:10132000704700000A4B1B6803F4C063B3F5806F7D
:101330000AD0074BD3F8803013F4807F01D100200E
:1013400070474FF4007070474FF48060704700BFE3
:1013500000700040002838D13E4B1B6803F4C06386
:10136000B3F5806F08D03B4AD2F8803023F4807305
:10137000C2F8803000207047364AD2F8803023F41B
:101380008073C2F88030136823F4C06343F40073A1
:101390001360314B1A68322303FB02F32F4AA2FB7E
:1013A00003239B0C013300E0013B2A4A526912F4EB
:1013B000806F01D0002BF7D1264B5B6913F4806F4F
:1013C00001D10020704703207047B0F5007F08D09E
:1013D000204A136823F4C06343F480631360002041
:1013E00070471C4B1B6803F4C063B3F5806F08D0D3
:1013F000184AD2F8803043F48073C2F8803000205D
:101400007047144AD2F8803043F48073C2F88030B9
:10141000136823F4C06343F4007313600E4B1A681F
:10142000322303FB02F30D4AA2FB03239B0C01337F
:1014300000E0013B074A526912F4806F01D0002B93
:10144000F7D1044B5B6913F4806F01D10020704722
:1014500003207047007000401C01002083DE1B4306
:10146000024A536843F48063536070470070004041
:101470001C4BDB6803F00303012B1CD00023194A2B
:10148000D26802F00302022A28D0032A28D0154A83
:10149000D068C0F303100130D168C1F3062103FB0B
:1014A00001F3B3FBF0F0D368C3F3416301335B0096
:1014B000B0FBF3F070470B4B1B6813F0080F08D11B
:1014C000084BD3F89430C3F30323074A52F8233070
:1014D000D5E7044B1B68C3F30313F6E7034BD6E7CA
:1014E000034BD4E700100240A86600080024F40073
:1014F00000127A0030B583B005461F4B9B6D13F088
:10150000805F0AD0FFF70EFFB0F5007F16D07F2D69
:101510001ED8702D2BD000211BE0174CA36D43F07B
:101520008053A365A36D03F080530193019BFFF7E4
:10153000F9FEA36D23F08053A365E5E7802D03D961
:10154000A02D03D9022104E0002102E0012100E0E6
:1015500002210A4A136823F00F030B431360136838
:1015600003F00F038B4204D0012003B030BD0121F2
:10157000EFE70020F9E700BF001002400020024022
:10158000284A9368D26802F0030213F00C030AD0D1
:101590000C2B06D0042B1FD0082B20D00020024695
:1015A00010E0012AF6D11F4A126812F0080F0CD180
:1015B0001C4AD2F89420C2F303221B4951F822207E
:1015C00043B100200C2B0DD07047164A1268C2F3AD
:1015D0000312F2E71046F5E714480022F2E7144838
:1015E0000022EFE70F4BDB6803F00303022B15D05B
:1015F000032B15D00B4BD868C0F303100130D9680A
:10160000C1F3062102FB01F2B2FBF0F2D868C0F38D
:10161000416001304000B2FBF0F0D5E7034AE9E752
:10162000034AE7E700100240A86600080024F4001F
:1016300000127A00002800F00883F0B583B0044659
:10164000AD4B9D6805F00C05DE6806F003060368E7
:1016500013F0100F5ED0E5B10C2D18D0A369002B4C
:1016600000F0B880A44A136843F001031360FEF74A
:1016700091FF0746A04B1B6813F0020F40F09780C4
:10168000FEF788FFC01B0228F4D90323E9E2012EEC
:10169000E4D1994B1B6813F0020F03D0A369002B10
:1016A00000F0D682206A944B1B6813F0080F5ED0BE
:1016B000914B1B6803F0F00398425FD9FFF71AFFC4
:1016C000002840F0C7828C4B1A6842F008021A606A
:1016D0001A6822F0F002216A0A431A605A6822F45A
:1016E0007F42E16942EA01225A60FFF749FF824BDB
:1016F0009B68C3F30313814AD35C03F01F03D840F4
:101700007F4B18607F4B1868FEF702FF03460028E6
:1017100040F0A782236813F0010F7AD0082D6FD014
:101720000C2D6BD06368B3F5803F00F09180B3F56A
:10173000A02F00F09380704B1A6822F480321A6058
:101740001A6822F480221A606368002B00F09380EC
:10175000FEF720FF0746684B1B6813F4003F58D183
:10176000FEF718FFC01B6428F5D9032379E2624B0A
:10177000D3F894301B0903F0F0039DE75E4B1A6821
:1017800042F008021A601A6822F0F002216A0A4345
:101790001A605A6822F47F42E16942EA01225A60E3
:1017A000206AFFF7A7FE00289FD0012359E2524B81
:1017B0001A6842F008021A601A6822F0F002216AE0
:1017C0000A431A605A6822F47F42E16942EA012220
:1017D0005A609FE7484A136823F001031360FEF73D
:1017E000D9FE0746444B1B6813F0020F92D0FEF758
:1017F000D1FEC01B0228F5D9032332E2032E91D17A
:101800003D4B1B6813F4003F03D06368002B00F0CE
:101810002382236813F0020F4FD0042D3CD00C2DEF
:1018200038D0E368002B78D0334A136843F48073D0
:101830001360FEF7AFFE06462F4B1B6813F4806F54
:1018400062D1FEF7A7FE801B0228F5D9032308E228
:10185000294A136843F48033136075E703F180432A
:10186000A3F53C331A6842F480221A601A6842F4E5
:1018700080321A6068E7FEF78DFE07461E4B1B6834
:1018800013F4003FC5D0FEF785FEC01B6428F5D9D0
:101890000323E6E1022EC4D1174B1B6813F4806FBB
:1018A00003D0E368002B00F0D981134A536823F07A
:1018B000FE43216943EA01635360236813F0080F74
:1018C00056D06369002B3CD00B4AD2F8943043F0D9
:1018D0000103C2F89430FEF75DFE0646064BD3F8CE
:1018E000943013F0020F43D1FEF754FE801B022800
:1018F000F4D90323B5E100BF00100240D866000808
:101900001C01002004000020B64A536823F0FE4367
:10191000216943EA01635360CFE7B24A136823F4B5
:1019200080731360FEF736FE0646AE4B1B6813F459
:10193000806FC2D0FEF72EFE801B0228F5D903234C
:101940008FE1A84AD2F8943023F00103C2F8943012
:10195000FEF720FE0646A34BD3F8943013F0020F97
:1019600006D0FEF717FE801B0228F4D9032378E186
:10197000236813F0040F7AD09A4B9B6D13F0805FAD
:101980000BD1984B9A6D42F080529A659B6D03F093
:1019900080530193019B012600E00026924B1B68B7
:1019A00013F4807F26D0A368012B37D0052B3DD0C0
:1019B0008C4BD3F8902022F00102C3F89020D3F88A
:1019C000902022F00402C3F89020A368002B3BD0A3
:1019D000FEF7E0FD0746834BD3F8903013F0020F7B
:1019E00044D1FEF7D7FDC01B41F288339842F2D9AB
:1019F000032336E17C4A136843F480731360FEF7D7
:101A0000C9FD0746784B1B6813F4807FCBD1FEF7E6
:101A1000C1FDC01B0228F5D9032322E1714AD2F887
:101A2000903043F00103C2F89030CEE76D4BD3F80D
:101A3000902042F00402C3F89020D3F8902042F0A6
:101A40000102C3F89020C0E7FEF7A4FD0746654BEE
:101A5000D3F8903013F0020F08D0FEF79BFDC01BA7
:101A600041F288339842F2D90323FAE0E6B92368B9
:101A700013F0200F35D0636AE3B15A4AD2F8983098
:101A800043F00103C2F89830FEF784FD0646554B3B
:101A9000D3F8983013F0020F23D1FEF77BFD801BA3
:101AA0000228F4D90323DCE04E4A936D23F08053DF
:101AB0009365DCE74B4AD2F8983023F00103C2F873
:101AC0009830FEF767FD0646464BD3F8983013F082
:101AD000020F06D0FEF75EFD801B0228F4D9032317
:101AE000BFE0A36A002B00F0BB800C2D6FD0022B4F
:101AF00023D03C4B1A6822F080721A601B6813F0E6
:101B0000205F04D1374AD36823F00303D360354AFA
:101B1000D36823F0887323F48033D360FEF73AFD53
:101B20000446304B1B6813F0007F4ED0FEF732FDA9
:101B3000001B0228F5D9032393E02A4A136823F0F7
:101B400080731360FEF726FD0546264B1B6813F0D5
:101B5000007F06D0FEF71EFD401B0228F5D90323A7
:101B60007FE0204AD36821491940E36A206B01389D
:101B700043EA0013606B43EA0023E06B400801383E
:101B800043EA4053206C4008013843EA4063A06BAD
:101B900043EAC0630B43D360136843F08073136060
:101BA000D36843F08073D360FEF7F4FC04460D4B1A
:101BB0001B6813F0007F06D1FEF7ECFC001B022827
:101BC000F5D903234DE000234BE0002349E0012B2E
:101BD0004AD0044BDB6803F00301E26A914207D06C
:101BE00001233EE000100240007000400C809D0187
:101BF00003F0F002216B0139B2EB011F01D0012388
:101C00002FE003F4FE42616BB2EB012F01D0012300
:101C100027E003F07842A16BB2EBC16F01D0012342
:101C20001FE003F4C001E26B5208013AB1EB425FDE
:101C300001D0012315E003F0C063226C5208013A81
:101C4000B3EB426F12D001230BE00123184670471B
:101C5000012306E0012304E0012302E0012300E068
:101C60000023184603B0F0BD0123FAE70023F8E78C
:101C7000002800F0DE80F8B50446704B1B6803F0C6
:101C80000F038B420CD26D4A136823F00F030B43F2
:101C90001360136803F00F038B4201D00120F8BDDD
:101CA0000D46266816F0010674D06368032B0DD02C
:101CB000022B34D0002B46D103F1804303F50433CB
:101CC0001B6813F0020F30D10120E8E75C4B1B6862
:101CD00013F0007F01D10120E1E7FFF7C9FB594B69
:101CE000984237D9564B9B6813F0F00F08D1544AED
:101CF000936823F0F00343F08003936080262EE086
:101D0000266816F002062AD0A3682BBB4C4A9368BB
:101D100023F0F00343F08003936080261FE0484BDC
:101D20001B6813F4003F00F08680FFF729FC454B49
:101D3000984213D9424A936823F0F00343F080039A
:101D4000936080260BE03E4B1B6813F4806FECD150
:101D50000120A4E7002602E0002600E00026384A21
:101D6000936823F0030361680B439360FEF712FC52
:101D70000746334B9B6803F00C036268B3EB820F9A
:101D800008D0FEF707FCC01B41F288339842F0D917
:101D9000032084E7236813F0020F19D0284A9368C0
:101DA00023F0F003A1680B439360244B1B6803F0FE
:101DB0000F03AB4214D9214A136823F00F032B43BE
:101DC0001360136803F00F03AB4209D0012066E7EC
:101DD000802EEAD11A4A936823F0F0039360E4E777
:101DE000236813F0040F06D0154A936823F4E063C8
:101DF000E1680B439360236813F0080F07D0104A83
:101E0000936823F46053216943EAC1039360FFF7A9
:101E1000B7FB0B4B9B68C3F303130B4AD35C03F074
:101E20001F03D840094B1860094B1868FEF770FB78
:101E300035E701207047012031E700BF0020024054
:101E40000010024000B4C404D86600081C01002041
:101E500004000020014B1868704700BF1C010020DF
:101E600008B5FFF7F7FF054B9B68C3F30223044A4D
:101E7000D35C03F01F03D84008BD00BF0010024030
:101E8000E866000808B5FFF7E5FF054B9B68C3F35C
:101E9000C223044AD35C03F01F03D84008BD00BF2F
:101EA00000100240E8660008F8B5554BDB6813F0F7
:101EB000030F0ED0524BDB6803F00303026893421A
:101EC00002D001252846F8BD002A00F097800025A1
:101ED00016E00368022B56D0032B5BD0012B01D0F8
:101EE00001250BE0464A126812F0020F5ED0444C06
:101EF000E26822F003021343E3600025002DE1D1E4
:101F00000F4604463E4A136823F080531360FEF7E1
:101F100041FB06463A4B1B6813F0005F05D0FEF705
:101F200039FB801B0228F5D90325002DCAD1002FCB
:101F30003ED133484369334A1A40A168E368DB065F
:101F400043EA01236168013943EA01131343436102
:101F50002B4A136843F080531360FEF71BFB0646C1
:101F6000274B1B6813F0005F05D1FEF713FB801BA6
:101F70000228F5D90325002DA4D1214A5369A1696E
:101F80000B4353619EE71E4A126812F4806FAED174
:101F90000125B3E71A4A126812F4003FA7D1184A84
:101FA000126812F4802FA2D10125A7E70125A5E729
:101FB000012F11D012484369134A1A40A16863697E
:101FC0005B08013B5B0643EA01236168013943EA90
:101FD000011313434361BBE7094843690B4A1A40A5
:101FE000A16823695B08013B5B0543EA0123616843
:101FF000013943EA011313434361A9E7012561E76E
:10200000001002400F80FF070F80FFF90F809FFF35
:10201000F8B5554BDB6813F0030F0ED0524BDB685D
:1020200003F003030268934202D001252846F8BD5D
:10203000002A00F09780002516E00368022B56D096
:10204000032B5BD0012B01D001250BE0464A12681F
:1020500012F0020F5ED0444CE26822F003021343F8
:10206000E3600025002DE1D10F4604463E4A136887
:1020700023F080631360FEF78DFA06463A4B1B6827
:1020800013F0006F05D0FEF785FA801B0228F5D902
:102090000325002DCAD1002F3ED133480369334AAE
:1020A0001A40A168E368DB0643EA0123616801394D
:1020B00043EA0113134303612B4A136843F080631F
:1020C0001360FEF767FA0646274B1B6813F0006F94
:1020D00005D1FEF75FFA801B0228F5D90325002DF4
:1020E000A4D1214A1369A1690B4313619EE71E4ADB
:1020F000126812F4806FAED10125B3E71A4A126854
:1021000012F4003FA7D1184A126812F4802FA2D10E
:102110000125A7E70125A5E7012F11D01248036982
:10212000134A1A40A16863695B08013B5B0643EAF6
:1021300001236168013943EA011313430361BBE7DB
:10214000094803690B4A1A40A16823695B08013BEF
:102150005B0543EA01236168013943EA0113134334
:102160000361A9E7012561E7001002400F80FF0726
:102170000F80FFF90F809FFF2DE9F04182B00446E8
:10218000036813F4006F2FD0C36E402B10D008D813
:10219000FBB1202B09D100212030FFF785FE064638
:1021A0001CE0602B1ED0802B1CD001273E461DE07A
:1021B000604AD36843F48033D36000265D4AD2F886
:1021C0009C3023F0E003E16E0B43C2F89C30002703
:1021D0000CE000210430FFF71BFF0646002EEDD077
:1021E000374603E00026E9E700273E46236813F45C
:1021F000805F29D0236FB3F5007F15D00BD8002B5B
:102200007AD0B3F5807F0CD1002104F12000FFF7D4
:102210004BFE06460DE0B3F5407F0AD0B3F5806F64
:1022200007D001273E460FE0424AD36843F480338B
:10223000D360002E66D13F4AD2F89C3023F4E0638D
:10224000216F0B43C2F89C30236813F4003F7AD00F
:10225000384B9B6D13F0805F56D1364B9A6D42F030
:1022600080529A659B6D03F080530193019B4FF060
:102270000108314A136843F480731360FEF78AF94A
:1022800005462D4B1B6813F4807F05D1FEF782F9BC
:10229000401B0228F5D90326002E4FD1254BD3F839
:1022A000903013F4407316D0D4F890209A4212D094
:1022B000204AD2F8903023F44073D2F8901041F4C1
:1022C0008031C2F89010D2F8901021F48031C2F819
:1022D0009010C2F8903013F0010F18D1002E40F08A
:1022E0006281144AD2F8903023F44073D4F89010ED
:1022F0000B43C2F8903022E00021201DFFF788FE3A
:10230000064696E737469FE74FF00008B1E7FEF72D
:1023100041F90546074BD3F8903013F0020FDDD199
:10232000FEF738F9401B41F288339842F2D9032670
:10233000D4E700BF00100240007000403746B8F1FB
:10234000000F40F03281236813F0010F08D0BD4A1E
:10235000D2F8883023F00303E16B0B43C2F88830D6
:10236000236813F0020F08D0B64AD2F8883023F061
:102370000C03216C0B43C2F88830236813F0040F60
:1023800008D0B04AD2F8883023F03003616C0B4398
:10239000C2F88830236813F0080F08D0A94AD2F891
:1023A000883023F0C003A16C0B43C2F88830236847
:1023B00013F0100F08D0A34AD2F8883023F44073EA
:1023C000E16C0B43C2F88830236813F0200F08D06B
:1023D0009C4AD2F8883023F44063216D0B43C2F845
:1023E0008830236813F4007F08D0964AD2F88830EA
:1023F00023F44023616E0B43C2F88830236813F442
:10240000806F08D08F4AD2F8883023F44013A16E31
:102410000B43C2F88830236813F0400F08D0894A74
:10242000D2F8883023F44053616D0B43C2F88830F2
:10243000236813F0800F08D0824AD2F8883023F442
:102440004043A16D0B43C2F88830236813F4807FAA
:1024500008D07C4AD2F8883023F44033E16D0B4336
:10246000C2F88830236813F4801F08D0754AD2F868
:102470009C3023F00303216E0B43C2F89C30236889
:1024800013F4005F11D06F4AD2F8883023F0406314
:10249000616F0B43C2F88830636FB3F1006F00F0D7
:1024A0008A80B3F1806F00F08B80236813F4002FD3
:1024B0001FD0A36FB3F5804F00F08B80614AD2F834
:1024C0009C3023F48043C2F89C30D2F8883023F04B
:1024D0004063A16F0B43C2F88830A36FB3F1006F64
:1024E0007FD0B3F5804F00F08280B3F1806F00F0B1
:1024F0008480236813F4802F0FD0524AD2F888309A
:1025000023F04063E16F0B43C2F88830E36FB3F10F
:10251000006F7BD0B3F1806F7DD0236813F4804FC0
:102520000ED0484AD2F8883023F04053D4F88010B7
:102530000B43C2F88830D4F88030B3F1805F73D099
:10254000236813F4803F09D03E4AD2F89C3023F030
:102550000403D4F884100B43C2F89C30236813F4AE
:10256000001F09D0374AD2F89C3023F01803D4F862
:1025700088100B43C2F89C30236813F0807F0ED084
:10258000304AD2F89C3023F44013D4F88C100B431B
:10259000C2F89C30D4F88C30B3F5001F4CD03846CC
:1025A00002B0BDE8F0813746C9E6264A936D23F0B4
:1025B00080539365C7E6D36843F48013D36074E710
:1025C0000121201DFFF724FD00283FF46EAF0746D0
:1025D0006BE71C4AD2F89C3043F48043C2F89C302D
:1025E0007BE7184AD36843F48013D36081E7154A28
:1025F000D36843F48033D3607BE70121201DFFF7CC
:1026000007FD00283FF475AF074672E7D36843F42F
:102610008013D36081E70121201DFFF7F9FC00281A
:102620003FF47BAF074678E70221201DFFF7F0FC5F
:10263000002885D0074683E7D36843F48013D3602E
:10264000ADE700BF00100240024A136843F00403E4
:10265000136070470010024030B4036A23F0010396
:102660000362036A4468826922F4803222F07302B2
:102670000D682A4323F002038D682B431C4DA842AA
:102680000FD005F50065A8420BD005F54065A842BE
:1026900007D005F58065A84203D005F58065A842FE
:1026A00005D123F00803CD682B4323F00403104D1C
:1026B000A8420FD005F50065A8420BD005F540658E
:1026C000A84207D005F58065A84203D005F58065CE
:1026D000A84205D124F440754C692C438D692C43E4
:1026E000446082614A684263036230BC704700BF45
:1026F000002C014030B4036A23F480730362036A40
:102700004468C26922F4803222F073020D682A43C1
:1027100023F400738D6843EA0523184DA84203D0C3
:1027200005F50065A84206D123F40063CD6843EAAD
:10273000052323F48063114DA8420FD005F50065F1
:10274000A8420BD005F54065A84207D005F5806585
:10275000A84203D005F58065A84207D124F440546F
:102760004D6944EA05148D6944EA05144460C26168
:102770004A68C263036230BC704700BF002C01404E
:1027800030B4036A23F480530362036A4468C26965
:1027900022F0807222F4E6420D6842EA052223F418
:1027A00000538D6843EA05330F4DA8420FD005F55D
:1027B0000065A8420BD005F54065A84207D005F595
:1027C0008065A84203D005F58065A84204D124F4B1
:1027D00080444D6944EA85144460C2614A680264D9
:1027E000036230BC704700BF002C014030B4036A64
:1027F00023F480330362036A4468426D22F480321A
:1028000022F070020D682A4323F400338D6843EAF6
:1028100005430F4DA8420FD005F50065A8420BD027
:1028200005F54065A84207D005F58065A84203D0AC
:1028300005F58065A84204D124F480344D6944EA4A
:102840000524446042654A688265036230BC704773
:10285000002C014030B4036A23F480130362036A3E
:102860004468426D22F0807222F4E0420D6842EA30
:10287000052223F400138D6843EA05530F4DA84247
:102880000FD005F50065A8420BD005F54065A842BC
:1028900007D005F58065A84203D005F58065A842FC
:1028A00004D124F480244D6944EA852444604265BF
:1028B0004A68C265036230BC704700BF002C01400B
:1028C0000368304A904212D0B0F1804F0FD0A2F589
:1028D000943290420BD002F58062904207D002F50C
:1028E0008062904203D002F59432904203D123F0EB
:1028F00070034A681343234A90421ED0B0F1804FC0
:102900001BD0A2F59432904217D002F5806290421B
:1029100013D002F5806290420FD002F594329042BB
:102920000BD002F54062904207D002F580629042DF
:1029300003D002F58062904203D123F44073CA6849
:10294000134323F080034A69134303608B68C36217
:102950000B6883620B4B98420FD003F500639842DB
:102960000BD003F54063984207D003F5806398428B
:1029700003D003F58063984201D10B6903630123FF
:1029800043617047002C0140A8B110B5044690F88F
:102990003D305BB1022384F83D30211D2068FFF7F4
:1029A0008FFF012384F83D30002010BD80F83C30BB
:1029B00002F0EAFFEEE701207047000030B4036A3E
:1029C00023F010030362036A4468826922F0807274
:1029D00022F4E6420D6842EA052223F020038D68C6
:1029E00043EA0513174DA84203D005F50065A84238
:1029F00006D123F08003CD6843EA051323F040039A
:102A0000104DA8420FD005F50065A8420BD005F582
:102A10004065A84207D005F58065A84203D005F5BA
:102A20008065A84207D124F440644D6944EA8504D6
:102A30008D6944EA8504446082614A688263036266
:102A400030BC7047002C014038B590F83C30012B69
:102A500000F092800D460446012380F83C300223AA
:102A600080F83D30142A1ED8DFE802F00B1D1D1D32
:102A7000241D1D1D381D1D1D4B1D1D1D5F1D1D1DF4
:102A800072000068FFF7E8FD2268936943F00803CD
:102A900093612268936923F0040393612268936928
:102AA00029690B439361012384F83D30002084F8A9
:102AB0003C0038BD0068FFF781FF2268936943F44A
:102AC000006393612268936923F4806393612268B1
:102AD0009369296943EA01239361E4E70068FFF7FA
:102AE00009FE2268D36943F00803D3612268D369E1
:102AF00023F00403D3612268D36929690B43D361AE
:102B0000D1E70068FFF73CFE2268D36943F4006315
:102B1000D3612268D36923F48063D3612268D369C7
:102B2000296943EA0123D361BDE70068FFF75EFE30
:102B30002268536D43F0080353652268536D23F0F8
:102B4000040353652268536D29690B435365AAE753
:102B50000068FFF77FFE2268536D43F400635365FE
:102B60002268536D23F4806353652268536D29698D
:102B700043EA0123536596E702209AE710B401F077
:102B80001F01012303FA01F4036A23EA0403036229
:102B9000036A8A40134303625DF8044B70470000E8
:102BA00010B5044601220068FFF7E8FF2368134AC6
:102BB00093420FD002F5006293420BD002F54062BF
:102BC000934207D002F58062934203D002F58062FF
:102BD000934203D15A6C42F400425A6422689168CD
:102BE000074B0B40062B06D0B3F5803F03D013688C
:102BF00043F001031360002010BD00BF002C014012
:102C00000700010090F83C30012B28D030B401239C
:102C100080F83C30022380F83D30026853689568A4
:102C2000104CA24203D004F50064A24203D123F465
:102C300070034C68234323F070030C68234325F092
:102C4000800489682143536003689960012380F8F8
:102C50003D30002380F83C30184630BC70470220DD
:102C6000704700BF002C014090F83C30012B3ED053
:102C700010B4012380F83C30CB6823F440738A6899
:102C8000134323F480634A68134323F400630A6800
:102C9000134323F480530A69134323F400534A690E
:102CA000134323F480438A6A134323F470238A690D
:102CB00043EA024302680F4CA24203D004F50064C9
:102CC000A2420CD123F470034C6A43EA045323F06C
:102CD0008073CC69234323F00073096A0B43536468
:102CE000002380F83C3018465DF8044B7047022002
:102CF000704700BF002C01400268136823F49073F2
:102D000013600268936823F0805323F001039360FB
:102D10002023C0F884300023C3667047704708B58D
:102D200001680A6822F040020A602022C0F8802070
:102D300000220267FFF7F2FF08BD704770B5044636
:102D40000268D3691068916813F00F050DD113F074
:102D5000200F0AD010F0200F02D111F0805F04D0B4
:102D6000E36E0BB12046984770BD002D00F08380C4
:102D70005F4D0D4002D110F4907F7CD013F0010F15
:102D800009D010F4807F06D001261662D4F888207E
:102D90003243C4F8882013F0020F0BD011F0010F5A
:102DA00008D0226802261662D4F8882042F0040275
:102DB000C4F8882013F0040F0BD011F0010F08D0D5
:102DC000226804261662D4F8882042F00202C4F871
:102DD000882013F0080F0BD010F0200F00D13DB168
:102DE000226808251562D4F888202A43C4F8882070
:102DF000D4F88820002AB7D013F0200F09D010F0A3
:102E0000200F02D111F0805F03D0E36E0BB120469A
:102E10009847D4F8882023689B6813F0400F02D1AC
:102E200012F0080F20D02046FFF766FF23689A684B
:102E300012F0400F14D09A6822F040029A60A36FFB
:102E400053B12C4A9A63A06FFDF728FC00288BD061
:102E5000A06F836B984787E72046FFF76EFF83E7F5
:102E60002046FFF76AFF7FE72046FFF766FF002353
:102E7000C4F8883078E713F4801F02D011F4800F73
:102E80000FD113F0800F13D010F0800F02D111F486
:102E9000000F0DD0236F002B3FF466AF20469847FC
:102EA00062E74FF480131362204601F087F85BE776
:102EB00013F0400F02D010F0400F10D113F4000FA8
:102EC00002D010F0804F0ED113F0807F3FF44CAF52
:102ED0000028BFF649AF204601F071F844E72046CC
:102EE000FFF71DFF40E7204601F06AF83CE700BF0E
:102EF00001000010F92E000808B5806A0023A0F830
:102F00005E30A0F85630FFF718FF08BD0000000043
:102F10002DE9F04804460168836802691343426959
:102F20001343C2691343426E134308689D4A02402B
:102F30001A430A602268536823F44053E1680B4344
:102F40005360A1692268984B9A4201D0236A1943C1
:102F5000936823F06E4323F430630B43936022683D
:102F6000D36A23F00F03616A0B43D36223688F4A4D
:102F7000934227D08E4A934238D08E4A93424ED005
:102F80008D4A934261D08D4A934274D0864A9342CF
:102F900000F08A801025844A934200F0AA80E369F9
:102FA000B3F5004F00F07083082D00F23286DFE8A1
:102FB00015F0C704170555053006AD053006300677
:102FC0003006EB0502F55842D2F8882002F00302E1
:102FD000032A09D8DFE802F0020481060125DAE7B6
:102FE0000425D8E70825D6E71025D4E702F5E63210
:102FF000D2F8882002F00C020C2A0ED8DFE802F08A
:10300000070D0D0D090D0D0D6F0D0D0D0B0000259C
:10301000C1E70425BFE70825BDE71025BBE702F59A
:10302000E432D2F8882002F03002102A09D005D903
:10303000202A56D0302A06D10825ACE71AB9002537
:10304000A9E70425A7E71025A5E702F5E232D2F8A3
:10305000882002F0C002402A09D005D9802A42D037
:10306000C02A06D1082596E71AB9002593E704255A
:1030700091E710258FE702F5E032D2F8882002F4BC
:103080004072B2F5807F0BD007D9B2F5007F2CD00B
:10309000B2F5407F06D108257DE71AB900257AE709
:1030A000042578E7102576E702F5C832D2F88820A3
:1030B00002F44062B2F5806F0BD007D9B2F5006F11
:1030C00015D0B2F5406F06D1082564E71AB900257E
:1030D00061E704255FE710255DE702255BE7022530
:1030E00059E7022557E7022555E7022553E7022550
:1030F00051E7082D00F29085DFE815F009008E05F4
:1031000068008E0586008E058E058E05BD00FEF7D3
:10311000A7FE636AD3B1012B36D0022B36D0032B26
:1031200036D0042B36D0052B36D0062B36D0072BC5
:1031300036D0082B44D0092B44D00A2B44D00B2B7B
:1031400001D0012303E04FF4807300E00123B0FBC2
:10315000F3F0002800F06285626802EB42038342CC
:1031600000F25E85B0EB023F00F25C85082D00F2B4
:103170008882DFE815F0D400860233018602CB0195
:1031800086028602860222020223E0E70423DEE7AB
:103190000623DCE70823DAE70A23D8E70C23D6E77F
:1031A0001023D4E7F369FFCF0080004000380140CE
:1031B0000044004000480040004C004000500040E7
:1031C0002023C4E74023C2E78023C0E7636A002BC3
:1031D0006ED0012B6ED0022B6ED0032B6ED0042B41
:1031E0006ED0052B6ED0062B6ED0072B6ED0082B21
:1031F0006ED0092B6ED00A2B6ED00B2B01D0AE48AF
:10320000A7E74FF22440A4E7FEF7BAF9636AD3B107
:10321000012B1CD0022B1CD0032B1CD0042B1CD048
:10322000052B1CD0062B1CD0072B1CD0082B1CD028
:10323000092B1CD00A2B1CD00B2B01D0012303E03F
:103240004FF4807300E00123B0FBF3F081E7022329
:10325000FAE70423F8E70623F6E70823F4E70A234E
:10326000F2E70C23F0E71023EEE72023ECE74023FE
:10327000EAE78023E8E7636A83B3012B31D0022BAE
:1032800032D0032B33D0042B34D0052B35D0062B72
:1032900036D0072B37D0082B38D0092B39D00A2B42
:1032A0003AD00B2B02D04FF4004052E7802050E779
:1032B00081484EE781484CE781484AE7814848E722
:1032C000814846E7814844E7814842E7814840E732
:1032D00081483EE781483CE781483AE74FF40040A7
:1032E00037E74FF4804034E74FF4005031E741F2C4
:1032F00055502EE74FF480502BE740F6CC4028E79E
:1033000040F6AA2025E74FF4006022E74FF48060E2
:103310001FE74FF400701CE74FF4807019E7FEF7C9
:103320009FFD636AE3B1012B3AD0022B3BD0032B04
:103330003CD0042B3DD0052B3ED0062B3FD0072B95
:1033400040D0082B41D0092B42D00A2B43D00B2B65
:1033500002D00122002305E04FF48072002301E037
:10336000012200230021FCF74BFF0F0247EA106700
:1033700006026268500800252B4616EB000B47F149
:10338000000C58466146FCF73BFF03462846A3F570
:103390004071544A914200F247842268D36001E3AD
:1033A00002220023DEE704220023DBE706220023BB
:1033B000D8E708220023D5E70A220023D2E70C220F
:1033C0000023CFE710220023CCE720220023C9E707
:1033D00040220023C6E780220023C3E7636AFBB1D3
:1033E000012B2DD0022B30D0032B33D0042B36D021
:1033F000052B39D0062B3CD0072B3FD0082B42D0D1
:10340000092B45D00A2B48D00B2B04D0DFF8D8B0BD
:103410004FF0000C08E0DFF8A0B04FF0000C03E024
:10342000DFF8C4B04FF0000C560800252B461BEB0C
:1034300006004CF10001FCF7E3FE03462846A6E730
:10344000DFF8A8B04FF0000CEEE7DFF8A4B04FF0C3
:10345000000CE9E70FF2500CDCE900BCE4E7DFF810
:1034600094B04FF0000CDFE7DFF88CB04FF0000CA9
:10347000DAE70FF23C0CDCE900BCD5E7DFF87CB002
:103480004FF0000CD0E7DFF878B04FF0000CCBE73E
:10349000DFF870B04FF0000CC6E7DFF86CB04FF00B
:1034A000000CC1E7AFF3008000AAB02800000000C4
:1034B00000555814000000000024F40000127A00A7
:1034C00000093D00AAB0280080841E00006A180090
:1034D0005558140040420F0020A1070090D003006F
:1034E00048E80100FFFC0F00000024F40000127AFD
:1034F0000000093D0080841E00006A180040420F51
:103500000020A1070090D0030048E801FEF738F83A
:10351000636AE3B1012B32D0022B33D0032B34D0BA
:10352000042B35D0052B36D0062B37D0072B38D0BF
:10353000082B39D0092B3AD00A2B3BD00B2B02D0C9
:103540000122002305E04FF48072002301E00122F4
:1035500000230021FCF754FE0F0247EA1067060221
:103560006268500800252B4616EB000B47F1000C53
:1035700058466146FCF744FE0346284607E7022208
:103580000023E6E704220023E3E706220023E0E726
:1035900008220023DDE70A220023DAE70C220023B9
:1035A000D7E710220023D4E720220023D1E74022CE
:1035B0000023CEE780220023CBE7636AFBB1012B17
:1035C0002DD0022B30D0032B33D0042B36D0052B3B
:1035D00039D0062B3CD0072B3FD0082B42D0092BEB
:1035E00045D00A2B48D00B2B04D04FF4000B4FF0E2
:1035F000000C08E04FF4004B4FF0000C03E04FF4D8
:10360000000B4FF0000C560800252B461BEB060064
:103610004CF10001FCF7F4FD03462846B7E64FF4F1
:10362000800B4FF0000CEEE74FF4001B4FF0000C46
:10363000E9E7DFF88CB44FF0000CE4E74FF4801BAF
:103640004FF0000CDFE7DFF87CB44FF0000CDAE756
:10365000DFF874B44FF0000CD5E74FF4002B4FF0B7
:10366000000CD0E74FF4802B4FF0000CCBE74FF469
:10367000003B4FF0000CC6E74FF4803B4FF0000CCE
:10368000C1E70120002382E6082D00F25681DFE821
:1036900015F00900570096005401CF005401540161
:1036A00054010E01FEF7DCFB636AD3B1012B33D06A
:1036B000022B33D0032B33D0042B33D0052B33D044
:1036C000062B33D0072B33D0082B33D0092B33D024
:1036D0000A2B33D00B2B01D0012303E04FF480736E
:1036E00000E00123B0FBF3F06268530803EB4003F2
:1036F000B3FBF2F39BB20020A3F110014FF6EF727F
:10370000914200F293829AB222F00F02C3F3420375
:1037100013432268D36045E10223E3E70423E1E792
:103720000623DFE70823DDE70A23DBE70C23D9E7DD
:103730001023D7E72023D5E74023D3E78023D1E721
:10374000FEF7A0FB636AD3B1012B24D0022B24D057
:10375000032B24D0042B24D0052B24D0062B24D0DB
:10376000072B24D0082B24D0092B24D00A2B24D0BB
:103770000B2B01D0012303E04FF4807300E0012301
:10378000B0FBF3F06268530803EB4003B3FBF2F3C2
:103790009BB20020B0E70223F2E70423F0E7062300
:1037A000EEE70823ECE70A23EAE70C23E8E7102317
:1037B000E6E72023E4E74023E2E78023E0E7636ACB
:1037C000CBB1012B20D0022B20D0032B20D0042BF7
:1037D00020D0052B20D0062B20D0072B20D0082B63
:1037E00020D0092B20D00A2B20D00B2B01D0A84BA6
:1037F00002E0A84B00E0A64B626803EB5203B3FB68
:10380000F2F39BB2002077E7A34BF5E7A34BF3E776
:10381000A34BF1E7A34BEFE7A34BEDE7A34BEBE79C
:10382000A34BE9E7A34BE7E7A34BE5E7A34BE3E7AC
:10383000FDF7A6FE636AD3B1012B24D0022B24D05E
:10384000032B24D0042B24D0052B24D0062B24D0EA
:10385000072B24D0082B24D0092B24D00A2B24D0CA
:103860000B2B01D0012303E04FF4807300E0012310
:10387000B0FBF3F06268530803EB4003B3FBF2F3D1
:103880009BB2002038E70223F2E70423F0E7062387
:10389000EEE70823ECE70A23EAE70C23E8E7102326
:1038A000E6E72023E4E74023E2E78023E0E7636ADA
:1038B000DBB1012B23D0022B24D0032B25D0042BEA
:1038C00026D0052B27D0062B28D0072B29D0082B54
:1038D0002AD0092B2BD00A2B2CD00B2B02D04FF443
:1038E000803304E04FF4807301E04FF4803362686A
:1038F00003EB5203B3FBF2F39BB20020FCE64FF460
:103900000043F4E74FF48043F1E742F6AA23EEE7E1
:103910004FF40053EBE741F69813E8E741F25453B4
:10392000E5E74FF48053E2E74FF40063DFE74FF43D
:103930008063DCE74FF40073D9E701200023DBE666
:10394000FEF78EFA636AD3B1012B35D0022B35D046
:10395000032B35D0042B35D0052B35D0062B35D095
:10396000072B35D0082B35D0092B35D00A2B35D075
:103970000B2B01D0012203E04FF4807200E0012202
:10398000B0FBF2F2636802EB5302B2FBF3F292B2C5
:103990000020A2F110014FF6EF73994200F2488126
:1039A0002368DA600122A4F86A20A4F868200022C3
:1039B000E2662267BDE8F0880222E1E70422DFE741
:1039C0000622DDE70822DBE70A22D9E70C22D7E747
:1039D0001022D5E72022D3E74022D1E78022CFE78B
:1039E000FEF750FA636AD3B1012B23D0022B23D008
:1039F000032B23D0042B23D0052B23D0062B23D03D
:103A0000072B23D0082B23D0092B23D00A2B23D01C
:103A10000B2B01D0012203E04FF4807200E0012261
:103A2000B0FBF2F2636802EB5302B2FBF3F292B224
:103A30000020AEE70222F3E70422F1E70622EFE7D7
:103A40000822EDE70A22EBE70C22E9E71022E7E77C
:103A50002022E5E74022E3E78022E1E7636AC3B37F
:103A6000012B3FD0022B3FD0032B3FD0042B3FD064
:103A7000052B3FD0062B3FD0072B3FD0082B3FD044
:103A8000092B3FD00A2B3FD00B2B1FD0024A21E03D
:103A90000048E80148E801000024F40000127A0020
:103AA0005461510000093D0000D43000AAB0280044
:103AB00080841E0040420F0020A1070090D0030028
:103AC0000055150000CC0C0000AA0A004FF2244259
:103AD00000E0584A636802EB5302B2FBF3F292B281
:103AE000002056E7544AF5E7544AF3E7544AF1E711
:103AF000544AEFE7544AEDE7544AEBE7544AE9E702
:103B0000544AE7E7544AE5E7544AE3E7FDF738FD4E
:103B1000636AD3B1012B23D0022B23D0032B23D0F4
:103B2000042B23D0052B23D0062B23D0072B23D007
:103B3000082B23D0092B23D00A2B23D00B2B01D009
:103B4000012203E04FF4807200E00122B0FBF2F2A8
:103B5000636802EB5302B2FBF3F292B2002018E763
:103B60000222F3E70422F1E70622EFE70822EDE75D
:103B70000A22EBE70C22E9E71022E7E72022E5E73B
:103B80004022E3E78022E1E7636AD3B1012B22D030
:103B9000022B23D0032B24D0042B25D0052B26D099
:103BA000062B27D0072B28D0082B29D0092B2AD069
:103BB0000A2B2BD00B2B02D04FF4004203E08022C3
:103BC00001E04FF40042636802EB5302B2FBF3F2F0
:103BD00092B20020DDE64FF48042F4E74FF4005249
:103BE000F1E741F25552EEE74FF48052EBE740F631
:103BF000CC42E8E740F6AA22E5E74FF40062E2E7AC
:103C00004FF48062DFE74FF40072DCE74FF480721C
:103C1000D9E701200022BCE60120C3E60020C1E66E
:103C20000120BFE60120BDE60120BBE60120B9E688
:103C30000120B7E60024F40000127A0000093D00DC
:103C4000AAB0280080841E00006A1800555814008D
:103C500040420F0020A1070090D0030048E8010077
:103C6000836A13F0010F06D00268536823F400330F
:103C7000C16A0B435360836A13F0020F06D00268D7
:103C8000536823F48033016B0B435360836A13F052
:103C9000040F06D00268536823F48023416B0B4362
:103CA0005360836A13F0080F06D00268536823F448
:103CB0000043816B0B435360836A13F0100F06D0EF
:103CC0000268936823F48053C16B0B439360836A4B
:103CD00013F0200F06D00268936823F40053016CA0
:103CE0000B439360836A13F0400F0AD00268536855
:103CF00023F48013416C0B435360436CB3F5801F76
:103D00000BD0836A13F0800F06D00268536823F447
:103D10000023C16C0B43536070470268536823F45F
:103D2000C003816C0B435360EBE72DE9F04105467E
:103D30000F4616469846069C2B68DB6937EA030354
:103D40000CBF01230023B3421ED1B4F1FF3FF3D0D7
:103D5000FCF720FCA0EB0800A04201D8002CEBD11E
:103D60002A68136823F4D07313602A68936823F0D9
:103D7000010393602023C5F88030C5F88430002308
:103D800085F87C30032000E00020BDE8F0812DE9BB
:103D9000F04182B01E46D0F88030202B58D1044626
:103DA0000D469046002958D0002A58D090F87C3013
:103DB000012B56D0012380F87C300023C0F88830D6
:103DC0002123C0F88030FCF7E5FB0746A4F85480B7
:103DD000A4F85680A368B3F5805F02D04FF00008C6
:103DE00013E0236913B14FF000080EE0A846002548
:103DF0000BE038F8023B2268C3F308031385B4F8DC
:103E00005630013B9BB2A4F85630B4F856309BB202
:103E100073B100963B46002280212046FFF785FFC4
:103E200008BB002DE5D0236815F8012B1A85E6E7BD
:103E300000963B46002240212046FFF776FF0346CE
:103E400098B92022C4F88020002284F87C2000E069
:103E50000223184602B0BDE8F0810123F9E70123EF
:103E6000F7E70223F5E70323F3E70323F1E730B590
:103E700083B004460023C0F88830FCF78BFB05466E
:103E800023681B6813F0080F0ED123681B6813F01A
:103E9000040F17D12023C4F88030C4F884300020E8
:103EA00084F87C0003B030BD6FF07E43009303467E
:103EB00000224FF400112046FFF737FF0028E4D01E
:103EC0000320EFE76FF07E4300932B4600224FF470
:103ED00080012046FFF729FF0028DBD00320E1E71F
:103EE00078B310B50446D0F880300BB32423C4F85F
:103EF00080302268136823F0010313602046FFF727
:103F000007F8012813D0A36ABBB92268536823F4C9
:103F1000904353602268936823F02A0393602268D9
:103F2000136843F0010313602046FFF7A0FF10BDA4
:103F300080F87C3001F00AFED8E72046FFF790FEBB
:103F4000E3E701207047000010B485B002461A4B29
:103F500093E8030004AC04E903006C46083393E8DB
:103F6000030084E80300536EFBB111688B68C3F350
:103F70004263886804A901EB507010F8081CC9005E
:103F800010F8100C91FBF0F1A2F86A1004A90B4490
:103F900013F8081CC90013F8103C91FBF3F3A2F8C6
:103FA000683005B05DF8044B70470123A2F86A3011
:103FB000A2F86830F5E700BF9866000870477047C0
:103FC000704790F87C30012B18D0012380F87C30AA
:103FD0002423C0F8803003681A68196821F00101B1
:103FE000196022F000520023436601680A60202213
:103FF000C0F8802080F87C30184670470220704757
:1040000038B590F87C30012B1DD00446012380F890
:104010007C302423C0F8803003681D681A6822F0C1
:1040200001021A600268936823F0604319439160AB
:10403000FFF78AFF23681D602023C4F8803000202A
:1040400084F87C0038BD0220FCE738B590F87C305D
:10405000012B1DD00446012380F87C302423C0F8B6
:10406000803003681D681A6822F001021A60026835
:10407000936823F0606319439160FFF765FF23683D
:104080001D602023C4F88030002084F87C0038BDF7
:104090000220FCE7002301330C4A934211D8026945
:1040A000002AF8DA036943F00103036100230133B6
:1040B000064A934207D8026912F0010FF7D1002097
:1040C0007047032070470320704700BF400D030076
:1040D00084B010B5044603A880E80E00089B012BAD
:1040E0001CD1A36B23F48033A363E36823F484031C
:1040F00023F04003E360E36823F44013E3600F9B85
:10410000012B06D02046FFF7C5FFBDE8104004B0E4
:104110007047E36843F48013E360F3E7E36843F038
:104120004003E3602046FFF7B5FF0C9B23B1A36B70
:1041300023F48033A363E8E7A36B43F48033A363E2
:10414000E3E70000022A0AD00921C26822F4705273
:10415000C260C36843EA8123C360002070472A4BD2
:104160000B442A4A93423FD9294B0B44294A934294
:104170003CD9A1F57403A3F51053274A934237D9CC
:10418000A1F18373A3F5E74302F5C332A032934252
:1041900030D9224B0B44224A93422DD9214B0B4458
:1041A00002F5922202F57872934227D91E4B0B44F6
:1041B00002F5C32202F52072934221D9A1F1B7730F
:1041C000A3F5585302F5B71202F55872934219D964
:1041D000164B0B4402F5122202F5F862934201D904
:1041E0000621B2E70721B0E70F21AEE70E21ACE7C9
:1041F0000D21AAE70C21A8E70B21A6E70A21A4E7D5
:104200000921A2E70821A0E7405327FFFF340C0053
:10421000401E1BFF3F420F007F4F120060B6E5FEBD
:104220005FE3160000D3CEFEC05BB3FEE05459FE40
:10423000836843F00103836000207047836823F0A4
:10424000010383600020704708B5C36823F0C043B2
:10425000C360012909D069B9C36843F08043C360D2
:104260003220FCF79DF9002008BDC36843F00053DD
:10427000C360F5E70120F7E7890141F02001016102
:1042800000230133054A934205D8026912F0200F3A
:10429000F7D1002070470320704700BF400D030096
:1042A0001023036100230133054A934205D80269B4
:1042B00012F0100FF7D1002070470320704700BFA5
:1042C000400D0300D0F800381943C0F80018002052
:1042D0007047000084B02DE9F041044607A880E84B
:1042E0000E002546002306E003F1400204EB8202A3
:1042F0000021516001330E2BF6D9119B5BBBA36BE0
:1043000023F40013A363236843F04003236023686E
:1043100043F0800323600023C4F8003E04F50066E8
:10432000D4F80038C4F8003803212046FFF7CAFF4C
:1043300010212046FFF7A0FF804608B14FF001088A
:104340002046FFF7ADFF08B14FF0010800233361AD
:104350007361F3610FE0A36B43F40013A363DAE727
:10436000C3B94FF00060C2F8000900220A614FF69D
:104370007F328A6001330799994210D905EB4312C5
:1043800002F51061D2F800090028E9DB0020C2F82C
:104390000009EAE74FF09040C2F80009E5E7002382
:1043A0000AE0BBB14FF09047C2F8007B00220261E7
:1043B0004FF67F3282600133994210D905EB4312E8
:1043C00002F53060D2F8007B002FEADB0027C2F84C
:1043D000007BEBE74FF00067C2F8007BE6E733694C
:1043E00023F4807333610023A3616FF08043636122
:1043F000A36943F01003A361A2690C4B1343A361AB
:104400000D9B1BB1A36943F00803A361119B012B12
:1044100004D04046BDE8F04104B07047A36943F0C2
:10442000804343F00403A361F3E700BF00383C80FE
:10443000D0F8083803F00603022B05D0062B01D074
:104440000F207047022070470220704770B40B782D
:104450004A78012A22D0D0F81C2803F00F06012444
:10446000B44042EA0442C0F81C2800EB4310D0F8E4
:10447000003B13F4004F0ED1D0F8003B8A68C2F322
:104480000A02C97842EA8142134343F0805343F45D
:104490000043C0F8003B002070BC7047D0F81C48B7
:1044A00003F00F06B24092B22243C0F81C2800EB82
:1044B0004310D0F8002912F4004FECD1D0F80029B5
:1044C0008C68C4F30A04C97844EA814444EA8353FB
:1044D000134343F0805343F40043C0F80039DAE754
:1044E00070B40B784A78012A1FD0D0F83C5803F0FA
:1044F0000F06012404FA06F625EA0645C0F83C58E2
:10450000D0F81C58097801F00F018C4025EA0444CA
:10451000C0F81C4800EB4310D0F8002B124B13409E
:10452000C0F8003B002070BC7047D0F83C6803F036
:104530000F0402FA04F4A4B226EA0404C0F83C48CA
:10454000D0F81C48097801F00F018A4092B224EAA1
:104550000202C0F81C2800EB4310D0F80039034ACF
:104560001A40C0F80029DDE70078F3EF007833EC5B
:104570000B784A78012A23D000EB431000F5306312
:104580001A69D20CD2041A611A6922F0FF5222F47D
:10459000C0121A614A690AB18A684A611A6942F40A
:1045A00000221A611A698968C1F312010A431A616B
:1045B000D0F8003B43F00443C0F8003B00207047B4
:1045C00030B44A6962BB00EB4312D2F8104924F0C0
:1045D000FF5424F4C014C2F81049D2F8104944F42E
:1045E0000024C2F81049D2F81049E40CE404C2F8DF
:1045F000104900EB4313D3F8002942F00442C3F8FA
:1046000000294B694BB1D0F834380A7802F00F0119
:1046100001228A401343C0F83438002030BC704770
:1046200000EB431202F510621469E40CE404146117
:10463000146924F0FF5424F4C01414614D698C688B
:10464000A54200D94C61146944F400241461146932
:104650004D69C5F312052C431461CAE770B40333E6
:104660009B08002507E000EB023404F5805451F864
:10467000046B266001359D42F5D3002070BC704765
:1046800070B50B784A78012A27D000EB431303F565
:1046900030621469E40CE4041461146924F0FF54DA
:1046A00024F4C01414614C69002C40F09380146908
:1046B0008D68C5F312052C431461146944F4002479
:1046C0001461CA78012A00F09A80D3F8002B42F0D6
:1046D0000442C3F8002B002070BD4A6972BB00EB96
:1046E0004312D2F8104924F0FF5424F4C014C2F845
:1046F0001049D2F8104944F40024C2F81049D2F805
:104700001049E40CE404C2F8104900EB4313D3F859
:10471000002942F00442C3F80029CA78012A41D096
:104720004B69002BD7D0D0F834380A7802F00F014B
:1047300001228A401343C0F83438CCE700EB43121F
:10474000D2F81049E40CE404C2F81049D2F8104938
:1047500024F0FF5424F4C014C2F81049D2F81059C0
:104760004C698E683444013CB4FBF6F42D4E06EAE5
:10477000C4442C43C2F81049D2F810494D69C5F31E
:1047800012052C43C2F8104902F51062CC78012CB6
:10479000BBD1146924F0C0441461146944F000547E
:1047A0001461B2E7D0F8082812F4807F0BD1D3F857
:1047B000002942F00052C3F800298B8A0A78C968A0
:1047C000FFF74CFF87E7D3F8002942F08052C3F887
:1047D0000029F2E78D682C44013CB4FBF5F415691F
:1047E000104E06EAC4463543156116698D68A4B2B9
:1047F00005FB04F4C4F312043443146161E7D0F8F8
:10480000082812F4807F06D1D3F8002B42F0005222
:10481000C3F8002B59E7D3F8002B42F08052C3F8BD
:10482000002B52E70000F81F033292080023934246
:104830000CD210B400F58054246841F8044B0133C5
:104840009342F7D308465DF8044B7047084670471B
:104850000B784A78012A14D000EB4310D0F8002BD3
:10486000002A06DB2BB1D0F8003B23F08043C0F8D0
:10487000003BD0F8003B43F40013C0F8003B00209D
:10488000704700EB4310D0F80029002A06DB2BB15B
:10489000D0F8003923F08043C0F80039D0F800394F
:1048A00043F40013C0F80039E9E70B784A78012A8D
:1048B0000ED000EB4310D0F8003B23F40013C0F8F7
:1048C000003BCB78023BDBB2012B15D900207047AF
:1048D00000EB4310D0F8003923F40013C0F800397E
:1048E000CB78023BDBB2012BF0D8D0F8003943F093
:1048F0008053C0F80039E9E7D0F8003B43F080531B
:10490000C0F8003BE2E7D0F8003823F4FE63C0F8BB
:104910000038D0F80038090101F4FE610B43C0F8FB
:1049200000380020704708B5D0F8043823F002039F
:10493000C0F804380320FBF733FE002008BD08B59B
:10494000D0F8043843F00203C0F804380320FBF722
:1049500027FE002008BD4269806910407047D0F8EA
:10496000183800F50060C0691840000C7047D0F896
:10497000183800F50060C069184080B2704700EB3D
:104980004111D1F8082B00F50060406910407047D4
:1049900010B4D0F81048D0F8343801F00F02D340EA
:1049A000DB01DBB2234300EB411000F510608068AF
:1049B00018405DF8044B7047406900F001007047F3
:1049C000D0F8003923F4FF6323F00703C0F800395F
:1049D00000F500639A6802F00602042A05D05A68BE
:1049E00042F480725A6000207047D0F8002942F0EB
:1049F0000302C0F80029F2E7026C0F4B9A4203D978
:104A0000D0F8003B002B14DB0023C0F8103BD0F89B
:104A1000103B43F40023C0F8103BD0F8103B43F0A8
:104A20001803C0F8103BD0F8103B43F0C043C0F867
:104A3000103B0020704700BF0A30544F10B5D0F82B
:104A40009042D0F894325BB194F80002FF2807D06E
:104A50009B6894F8012221469847FF2384F800328E
:104A6000002010BD43230380004870470800002049
:104A700043230380004870474C00002043230380F9
:104A800000487047900000200A23038000487047C8
:104A9000D400002038B50446D0F8905201F0B6FC9E
:104AA000C5F80C02D4F890324BB1D4F89432DB68DC
:104AB00005F50371D5F804029847002038BD02209F
:104AC000FCE770B5D0F89022D0F89852FAB101EB1B
:104AD0008104A3000344DB694BB1C1EBC106B40000
:104AE00025446D6CB3FBF5F405FB14331BB10020BA
:104AF000C2F8140270BD01EB81029300034400244C
:104B0000DC612346224601F065FC2046F2E70220E4
:104B1000F0E770B582B005460C46D0F890620023ED
:104B20008DF80730ADF804300B7813F0600227D011
:104B3000202A56D1CA883AB9D0F894329B6800220C
:104B40004878984700204FE013F0800F0CD0D0F841
:104B500094329B68314660789847E288314628460F
:104B600000F0A2FD00203FE04B7886F800328B7900
:104B700086F80132CA88314600F0ABFD002033E0F0
:104B80004B780A2B14D00B2B21D01BB100F083FAE9
:104B9000022029E090F87432032B05D1022201A9EA
:104BA00000F082FD00201FE000F075FA02201BE0FB
:104BB00090F87432032B06D101220DF1070100F0A9
:104BC00073FD002010E000F066FA02200CE090F87F
:104BD0007432032B01D1002006E000F05CFA0220C1
:104BE00002E000F058FA022002B070BD38B5044669
:104BF000812101F0A0FB0025E5620121204601F0A2
:104C00009AFBC4F858518221204601F094FB256498
:104C1000D4F890324BB1D4F894325B689847D4F80A
:104C2000900201F02FFCC4F89052002038BD38B536
:104C30000446037CA3BB4FF400730222812101F0E0
:104C400069FB0125E5624FF40073022229462046E4
:104C500001F060FBC4F8585108230322822120464A
:104C600001F058FB012323644FF4077001F006FCA8
:104C70000546C4F8900268B3D4F894321B6898478C
:104C80000023C5F81432C5F81832237CC3B1402381
:104C9000D5F804220121204601F0AAFB002038BDEE
:104CA00040230222812101F035FB0125E5624023EA
:104CB00002222946204601F02DFBC4F85851CBE7CB
:104CC0004FF40073D5F804220121204601F090FB37
:104CD0000020E4E70120E2E719B1C0F894120020B7
:104CE000704702207047D0F89032C3F80812C3F81A
:104CF000102200207047D0F89032C3F80412002030
:104D00007047D0F89022A2B108B5D2F814320BB196
:104D1000012008BD0123C2F81432D2F81032036317
:104D2000B2F81032D2F80822812101F053FB0020A2
:104D3000EFE702207047D0F890229AB108B5037CC3
:104D40003BB14023D2F80422012101F051FB0020A5
:104D500008BD4FF40073D2F80422012101F048FB92
:104D60000020F5E70220704798B108B50346D0F857
:104D70008C0210B10020C3F88C0209B1C3F888126C
:104D80001846012380F87432027001F083FA002083
:104D900008BD0220704719B1C0F88C12002070477E
:104DA0000220704708B501F0A7FA002008BD08B539
:104DB000D0F88C3233B11B68984708B9002008BD81
:104DC0000220FCE70220FAE708B5D0F88C325B68D5
:104DD0009847002008BD38B5044600F520752846E0
:104DE00000F045F90123C4F86C32B4F88632C4F8F7
:104DF000703294F8801201F01F03012B0ED03BB1EA
:104E0000022B10D001F08001204601F0A2FA03E04D
:104E10002946204600F0C3FA002038BD2946204626
:104E200000F0F1FAF8E72946204600F01CFBF3E712
:104E300038B50446A1BB1046D4F86C32032B03D01E
:104E4000052B24D0002037E0D4F84C31D4F8502181
:104E500093420DD99B1AC4F84C319A4206D99AB2A2
:104E60000146204600F044FC002025E092B2F7E71E
:104E7000D4F88C321B692BB194F87422032A01D127
:104E800020469847204600F03BFC002014E0002517
:104E9000C4F86C522946204601F05BFA28460BE024
:104EA0000A46D0F88C329B693BB190F87412032902
:104EB00005D111469847002038BD0220FCE70220AA
:104EC000FAE710B50446002953D11046D4F86C32E5
:104ED000022B0CD0042B00D01BB98021204601F0FE
:104EE00038FA94F87832012B3FD000204DE0236A45
:104EF000626A93421DD8E169B1FBF2F302FB13131E
:104F00002BB98A4203D8D4F8703299421FD3D4F80F
:104F10008C32DB682BB194F87422032A01D120462D
:104F200098478021204601F014FA204600F0F3FB58
:104F3000D7E79A1A226292B20146204600F0C1FBDE
:104F400000231A461946204601F052FAC9E700220A
:104F50001146204600F0B5FB0021C4F870120B4644
:104F60000A46204601F044FABBE7002084F87802A4
:104F70000BE00A46D0F88C325B693BB190F87412B2
:104F8000032905D111469847002010BD0220FCE7F7
:104F90000220FAE770B5044640230022114601F0D2
:104FA000B9F90125C4F844514026C4F8506133468C
:104FB00000228021204601F0ADF9A561666284F8E7
:104FC00074520023C4F86C326360C4F87C32D4F8A5
:104FD00090322BB1D4F88C325B6800212046984780
:104FE000002070BD01740020704790F8743280F882
:104FF0007532042380F874320020704790F87532BF
:1050000080F874320020704708B590F87432032B92
:1050100001D0002008BDD0F88C32DB69002BF8D01D
:105020009847F6E70020704700207047002070473F
:1050300008B5012280F87422D0F88C2252680179D8
:105040009047002008BD002302E00133DBB20130AD
:105050000278002AF9D11846704708B54B88012B11
:1050600000D008BDC0F87C3200F04AFBF9E70B78AD
:1050700003704B7843708B78CA7803EB022343802C
:105080000B794A7903EB022383808B79CA7903EB8E
:105090000223C380704710B50446802101F059F9FE
:1050A0000021204601F055F910BD30B583B005460A
:1050B0000C464A88130A013B0E2B00F29180DFE870
:1050C00003F01B23378F8F73808F8F8F8F8F8F8F7E
:1050D0000800D0F88832DB690DF10601007C9847A2
:1050E000BDF8062012B1E388002B7DD1E388002BA8
:1050F00000F0848003B030BDD0F888321B680DF119
:105100000601007C9847EBE7037C43B9D0F88C326A
:105110009B6A0DF10600984702234370E0E7D0F840
:105120008C32DB6A0DF10600984702234370D7E703
:10513000D2B2052A34D8DFE802F0030B131B232B6D
:10514000D0F888325B680DF10601007C9847C7E70C
:10515000D0F888329B680DF10601007C9847BFE7C4
:10516000D0F88832DB680DF10601007C9847B7E77C
:10517000D0F888321B690DF10601007C9847AFE733
:10518000D0F888325B690DF10601007C9847A7E7EB
:10519000D0F888329B690DF10601007C98479FE7A3
:1051A0002146FFF778FFA5E7037C33B9D0F88C32AE
:1051B0005B6B0DF10600984792E72146FFF76BFF06
:1051C00098E7037C43B9D0F88C321B6B0DF10600D5
:1051D00098470723437083E72146FFF75CFF89E781
:1051E0002146FFF758FF85E79A4228BF1A46ADF8D7
:1051F00006200146284600F057FA77E7284600F0D7
:105200007FFA77E738B504468B88F3B9CB88E3B9E2
:105210004B887F2B19D803F07F0590F87432032B4D
:105220000CD080F87652294601F0C6F8204600F0EE
:1052300067FA35B1022384F8743209E0FFF72BFFD7
:1052400006E0012384F8743202E02046FFF723FFD2
:1052500038BD000038B504460D468978284B1970D2
:1052600001290ED890F87432022B0ED0032B21D0D6
:105270002946FFF710FF224B19782046FFF7A4FDBF
:1052800002E02946FFF707FF38BD81B141600323E3
:1052900080F87432FFF78BFD022803D0204600F01F
:1052A0002FFAF1E729462046FFF7F5FEECE700F07C
:1052B00027FAE9E789B1436899421DD0D9B2FFF7CF
:1052C00083FD0F4B197861602046FFF770FD0228BF
:1052D0000DD0204600F014FAD6E7022380F874328D
:1052E0004160FFF771FD204600F00AFACCE729463D
:1052F0002046FFF7D0FEC7E700F002FAC4E700BF80
:10530000AC01002008B5CB88012B0BD190F874328A
:105310009BB1022B09D9032B0FD10122011D00F0F3
:10532000C3F901E0FFF7B7FE08BD0146002341F8CD
:10533000083F012200F0B8F9F6E7FFF7ACFEF3E70B
:1053400008B590F87432013B022B12D8CB88022B9F
:105350000CD10123C360D0F87C320BB10323C360AE
:10536000022200F10C0100F09FF908BDFFF793FE47
:10537000FBE7FFF790FEF8E708B590F87432013BC1
:10538000022B09D84B88012B00D008BD0023C0F8A0
:105390007C3200F0B5F9F8E7FFF77DFEF5E708B5D8
:1053A0000B7803F06003202B05D0402B03D043B1D2
:1053B000FFF771FE03E0D0F88C329B68984700201D
:1053C00008BD4B78092B1BD8DFE803F011171A141E
:1053D0001A08051A0E0BFFF768FEF0E7FFF712FF39
:1053E000EDE7FFF737FFEAE7FFF78CFFE7E7FFF7A7
:1053F000A7FFE4E7FFF731FEE1E7FFF7BDFFDEE7D8
:10540000FFF749FEDBE738B505460C460B7803F09D
:105410006003202B06D0402B04D01BB1FFF73BFECE
:10542000002038BD95F87432013B022B16D8237941
:10543000012B0ED8D5F88C329B6821462846984718
:10544000E388002BECD10028EAD1284600F058F977
:10545000E6E721462846FFF71EFEE1E721462846FB
:10546000FFF719FEDCE738B504468A880B7803F0AD
:105470006003202B08D0D0B2402B05D05BB1204672
:10548000FFF709FE002005E0D4F88C329B68204627
:105490009847002038BD202B05D1D4F88C329B686A
:1054A00020469847F6E74B78012B32D0002B5ED090
:1054B000032B40F0D68094F87432022B06D0032BD5
:1054C00016D02046FFF7E7FD0020E3E708B180286B
:1054D00004D12046FFF7DFFD0020DBE70146204630
:1054E00000F037FF8021204600F033FF0020D1E795
:1054F0004B8823B918B1802801D0CB8823B120462E
:1055000000F0FEF80020C5E70146204600F021FF2C
:10551000F5E794F87432022B06D0032B16D0204600
:10552000FFF7B9FD0020B5E708B1802804D1204677
:10553000FFF7B1FD0020ADE70146204600F009FF6E
:105540008021204600F005FF0020A3E74B88002BB8
:1055500040F08C8010F07F0F04D1204600F0D0F88E
:10556000002097E70146204600F001FFF5E794F898
:105570007432022B06D0032B29D02046FFF78BFD77
:10558000002087E708B1802812D112F0800F14D1D3
:1055900000F07F0000EB8000830003F5A073E118AA
:1055A00000250D600222204600F07EF8284671E7B3
:1055B0002046FFF770FD00206CE700F07F0000EB55
:1055C0008000830003F1100121440431E8E752B266
:1055D000002A1EDB00F00F0303EB83039D0025442C
:1055E000D5F844311BB3002A26DB00F07F0202EB22
:1055F0008202930003F5A073E51808B1802825D135
:1056000000232B6002222946204600F04DF800209E
:1056100040E700F00F0303EB83039D002544AB69D3
:10562000002BE0D12046FFF736FD002032E7204670
:10563000FFF731FD00202DE700F07F0202EB820230
:10564000930003F1100525440435D6E701462046B2
:1056500000F09BFE10B101232B60D3E700232B60E9
:10566000D0E72046FFF717FD002013E7002011E7E1
:10567000C8B170B50D4616460446FFF7E4FC01308C
:1056800040003080287003236B70022307E0013450
:105690005A1CD2B2E9540233DBB20021A95421785A
:1056A0000029F4D170BD704710B513460222C0F82E
:1056B0006C22C36103620A46002100F08BFE0020C9
:1056C00010BD08B513460A46002100F083FE0020F5
:1056D00008BD10B513460322C0F86C22C0F848314B
:1056E000C0F84C310A46002100F082FE002010BDB7
:1056F00008B513460A46002100F07AFE002008BDD6
:1057000008B50423C0F86C3200231A46194600F08D
:1057100061FE002008BD08B50523C0F86C320023E7
:105720001A46194600F064FE002008BDF0B58BB0A3
:10573000002405940694079408940994284BDA6C85
:1057400042F08002DA64DA6C02F080020092009A81
:10575000DA6C42F01002DA64DA6C02F010020192A4
:10576000019ADA6C42F00202DA64DA6C02F00202A8
:105770000292029ADA6C42F00402DA64DA6C02F005
:1057800004020392039ADA6C42F00102DA64DB6CE1
:1057900003F001030493049B124F22464FF481410E
:1057A0003846FBF791F8104D224680212846FBF73A
:1057B0008BF84FF481430593012606960794022344
:1057C000089305A93846FAF7A3FF802305930696A8
:1057D0000794089405A92846FAF79AFF0BB0F0BD84
:1057E00000100240000400480008004870B5BCB03A
:1057F000442200212BA800F038FF0024269427948F
:10580000289429942A949422214601A800F02DFF7F
:105810002046FBF79FFD10232B93012631963294EF
:105820006023339302253595369637963C2338937B
:1058300039953A953B952BA8FBF7FCFE0F23269351
:1058400003232793289429942A94052126A8FCF75A
:105850000FFA42F20103019310944FF080631E93FC
:1058600002960396182304930595069507954FF421
:105870008013089301A8FCF77FFCFCF7E5FE3CB021
:1058800070BD000008B5FAF769FEFFF7AFFFFFF73C
:105890004DFF00F097F900F0B7F800F023F90B4C3A
:1058A00000212046FDF77CF904212046FDF778F918
:1058B000074B1C682046FAF723FE81B2204600F011
:1058C000F7FB4FF47A70FAF76BFEF1E7180400204B
:1058D000180100207047000082B00A4B1A6E42F097
:1058E00001021A661A6E02F001020092009A9A6D85
:1058F00042F080529A659B6D03F080530193019BA7
:1059000002B07047001002407047FEE7FEE7FEE776
:10591000FEE770477047704708B5FAF72FFE08BDDD
:1059200008B50248FDF70AFA08BD00BF5804002078
:1059300008B50248FBF726F908BD00BF8017002014
:105940000F49D1F8883043F47003C1F888300D4B0B
:105950001A6842F001021A60002098601A6822F06A
:10596000A85222F410221A604FF48052DA601A68AA
:1059700022F480221A6098614FF000638B607047B8
:1059800000ED00E0001002400268094B9A4200D08E
:10599000704782B003F564431A6E42F400621A66DF
:1059A0001B6E03F400630193019B02B0704700BFBC
:1059B000002C014000B587B00023019302930393AC
:1059C0000493059302680E4B9A4202D007B05DF82B
:1059D00004FB03F56443DA6C42F01002DA64DB6C1A
:1059E00003F010030093009B4FF420630193022304
:1059F00002930123059301A90248FAF789FEE5E71E
:105A0000002C01400010004810B596B000241394FB
:105A1000149415940C940D940E940F941094119466
:105A200012942C22214601A800F01FFE2B482C4B7B
:105A3000036042F67C63436084606423C360046156
:105A400044618461FCF7A0FF002837D10023139341
:105A50001493159313A92148FDF7D4F8002830D1E9
:105A600060230C9300220D920E920F9210921192CD
:105A700012920CA91948FCF7E7FF28BB04220CA9D5
:105A80001648FCF7E1FF10BB002301930293039338
:105A9000049305934FF400520692079308934FF036
:105AA000007209920A930B9301A90C48FDF7DCF8E8
:105AB00080B90A48FFF77EFF16B010BDFFF70AFF56
:105AC000C4E7FFF707FFCBE7FFF704FFD6E7FFF7D1
:105AD00001FFD9E7FFF7FEFEEBE700BF1804002047
